:0400000007EF00F016
:100008005B827AED0BF042EF12F09FEC15F09390C3
:100018008190000E8AEC15F00001D46FD00ED42523
:10002800486E496AFF0E4922000EDD6F000EDC6F34
:1000380050EF00F0000EE16F000EE06F120EDC03CF
:10004800F3CFD4F0F4CFD5F0DD03F350D527000E6D
:10005800D425D66F010ED521D76FE051D625D96E9C
:10006800E151D721DA6EEC518AEC15F0DF6E000110
:10007800EC29EC6FE04BE12BE1BF4CEF00F0E151D4
:1000880009E1120EE05DD8A04CEF00F04EEF00F051
:1000980022EF00F0DC4BDD2B4850DC5D4950DD5988
:1000A800D8A059EF00F05BEF00F01EEF00F0000E53
:1000B800E36F000EE26FDBEF00F0120EE203F3CF06
:1000C800D4F0F4CFD5F0E303F350D527060ED425AA
:1000D800D96E010ED521DA6E410EDE18D8A477EF5D
:1000E80000F079EF00F09EEF00F0120E8103F3CFDD
:1000F800D4F0F4CFD5F08203F350D527000ED425E1
:10010800056E020ED521066E120EE203F3CFD6F06D
:10011800F4CFD7F0E303F350D727000ED625076EA8
:10012800010ED721086EABEC14F00001814B822B35
:10013800D9EF00F0120EE203F3CFD4F0F4CFD5F0EC
:10014800E303F350D527060ED425D96E010ED52129
:10015800DA6E500EDE18D8A4B4EF00F0B6EF00F057
:10016800D9EF00F0120E7F03F3CFD4F0F4CFD5F01F
:100178008003F350D527000ED425056E030ED52134
:10018800066E120EE203F3CFD6F0F4CFD7F0E303F6
:10019800F350D727000ED625076E010ED721086E1B
:1001A800ABEC14F000017F4B802BE24BE32B485063
:1001B800E25D4950E359D8A0E4EF00F0E6EF00F023
:1001C80061EF00F081C00BF082C00CF0000E0D6EE4
:1001D800020E0E6E28EC0DF07FC00BF080C00CF004
:1001E800000E0D6E030E0E6E28EC0DF0000E0001D1
:1001F800E56F000EE46F24EF01F0120EE403F3CF75
:10020800D4F0F4CFD5F0E503F350D527000ED4256C
:10021800056E010ED521066E120EE403F3CFD6F05B
:10022800F4CFD7F0E503F350D727000ED625076E95
:10023800020ED721086EABEC14F00001E44BE52B5D
:100248008151E45DE551800AD46F8251800AD45906
:10025800D8A031EF01F033EF01F001EF01F0000E0B
:10026800DB6F000EDA6F5EEF01F0120EE403F3CFDE
:10027800D4F0F4CFD5F0E503F350D527000ED425FC
:10028800056E010ED521066E120EDA03F3CFD6F0F5
:10029800F4CFD7F0DB03F350D727000ED625076E2F
:1002A800030ED721086EABEC14F00001DA4BDB2B00
:1002B800E44BE52B7F518125D46F80518221D56F86
:1002C800D451E45DE551800AD66FD551800AD659DC
:1002D800D8A071EF01F073EF01F039EF01F0ECC035
:1002E800EDF0000ED96F000ED86F010EC8EC12F0B9
:1002F80000019F6F9F29D8A484EF01F086EF01F0D9
:10030800A9EF01F0D1510A0DF3CFD4F0F4CFD5F015
:10031800D251D427000ED523F00ED425E86FFD0E58
:10032800D521E96FE851E911D8A49DEF01F09FEFBD
:1003380001F0A9EF01F0020E9E6F020EA06F000EF1
:10034800846F010E836F30EC11F0000199059A114A
:10035800D8A4B1EF01F0B3EF01F031EF02F0000ED5
:10036800056E010E10EC15F0020E0001A06F020ED2
:100378009E6F000EDF6F000EDE6F000EE76F000E3F
:10038800E66F000EE76F000EE66FE7BFD5EF01F0EE
:10039800E75109E1080EE65DD8A0D5EF01F0D7EFE7
:1003A80001F0D9EF01F0FBEF01F0DE51800F076E8D
:1003B800120E8503F3CFD4F0F4CFD5F08603F350B3
:1003C800D527000ED425D66F010ED521D76FE6515B
:1003D800D625D96EE751D721DA6EDF50D1EC15F06A
:1003E8000001DE4BDF2BE64BE72BC9EF01F0000ED7
:1003F800DF6F000EDE6FE7BF0BEF02F0E75109E198
:10040800120EE65DD8A00BEF02F00DEF02F00FEF31
:1004180002F031EF02F0DE51C00F076E120E8503B5
:10042800F3CFD4F0F4CFD5F08603F350D527000EE0
:10043800D425D66F010ED521D76FE651D625D96EB2
:10044800E751D721DA6EDF50D1EC15F00001DE4B11
:10045800DF2BE64BE72BFFEF01F00C0E9F19D8A41A
:1004680038EF02F03AEF02F046EF02F0EF2B080EF9
:10047800EF19D8A442EF02F044EF02F046EF02F081
:10048800010EEF6F0C0E9F19D8A44DEF02F04FEF3D
:1004980002F064EF02F0020E9E19D8A456EF02F0A3
:1004A80058EF02F064EF02F0F02B050EF019D8A413
:1004B80060EF02F062EF02F064EF02F0010EF06FFD
:1004C800A051D8A46AEF02F06CEF02F086EF02F0B8
:1004D8000B0E9F19D8B473EF02F075EF02F07EEFA0
:1004E80002F00C0E9F19D8A47CEF02F07EEF02F008
:1004F80086EF02F0010EA06F000E846F010E836F6D
:10050800F29EF29CA051D8A48CEF02F08EEF02F07C
:1005180098EF02F040EC13F060EC15F086EC12F066
:1005280004EC13F079EF01F0A005D8A49EEF02F0D7
:10053800A0EF02F079EF01F09F05D8A4A6EF02F032
:10054800A8EF02F0CDEF02F0020E9E19D8A4AFEF8B
:1005580002F0B1EF02F0B7EF02F09E6BA06B010E54
:10056800EE6FCDEF02F09E05D8A4BDEF02F0BFEF0D
:1005780002F0C3EF02F0020E9E6FCDEF02F09E5123
:10058800D8A4C9EF02F0CBEF02F0CDEF02F0010ED4
:100598009E6F9E51D8A4D3EF02F0D5EF02F055EF2D
:1005A80003F0000E056E010E10EC15F00001F105C8
:1005B800D8A4E1EF02F0E3EF02F0F5EF02F0F50E58
:1005C800076E2F0E086E800E096EEAEC13F0670EA8
:1005D800076E2F0E086EC00E096EEAEC13F00EEFD0
:1005E80003F0020EF119D8A4FCEF02F0FEEF02F0BE
:1005F8000EEF03F0F50E076E2F0E086EC00E096E93
:10060800EAEC13F0670E076E2F0E086E800E096E67
:10061800EAEC13F0B70E076E2F0E086E820E096E05
:10062800EAEC13F0C60E076E2F0E086EC20E096EA6
:10063800EAEC13F00B0E00019F19D8A426EF03F083
:1006480028EF03F039EF03F09E51D8A42EEF03F002
:1006580030EF03F039EF03F0010EF16536EF03F0E8
:1006680038EF03F039EF03F0F1070C0E9F19D8A407
:1006780040EF03F042EF03F055EF03F09E51D8A48A
:1006880048EF03F04AEF03F055EF03F0020EF16173
:1006980050EF03F052EF03F055EF03F0F12B55EF55
:1006A80003F0F105D8A45BEF03F05DEF03F072EF00
:1006B80003F09E05D8B463EF03F065EF03F06EEF27
:1006C80003F0020E9E19D8A46CEF03F06EEF03F04E
:1006D80079EF01F05AEC0FF079EF01F0020EF11901
:1006E800D8A479EF03F07BEF03F090EF03F09E05B9
:1006F800D8B481EF03F083EF03F08CEF03F0020E20
:100708009E19D8A48AEF03F08CEF03F090EF03F062
:10071800A7EC0EF079EF01F079EF01F007EF00F0A8
:10072800020E00019E19D8A49CEF03F09EEF03F07F
:10073800FBEF05F0EE51D8B4A4EF03F0A6EF03F0F9
:10074800E2EF03F0CB510A0DF3CF18F0F4CF19F014
:10075800CC511826000E1922F00E1824596EFD0EE1
:1007680019205A6ECE510A0DF3CF18F0F4CF19F0B4
:10077800CF511826000E1922F00E1824546EFD0EC3
:100788001920556ED1510A0DF3CF18F0F4CF19F096
:10079800D2511826000E1922F00E1824526EFD0EA2
:1007A8001920536ECBBBDBEF03F0DEEF03F0010E35
:1007B800DFEF03F0000E506E516AEE6BEF05D8A420
:1007C800E8EF03F0EAEF03F00AEF04F00B0E9F19CD
:1007D800D8A4F1EF03F0F3EF03F0DDEF04F0595084
:1007E800186E5A50196E594A5A2A195009E10B0EB7
:1007F800185CD8A002EF04F004EF04F0DDEF04F079
:10080800000E5A6E010E596EDDEF04F0020EEF195C
:10081800D8A411EF04F013EF04F02EEF04F00B0E40
:100828009F19D8A41AEF04F01CEF04F0DDEF04F0D0
:10083800544A552A3C0E54185510D8A426EF04F0F3
:1008480028EF04F0DDEF04F0000E556E000E546E34
:10085800DDEF04F0030EF019D8A435EF04F037EFFC
:1008680004F04FEF04F00B0E9F19D8A43EEF04F0EC
:1008780040EF04F0DDEF04F050505110D8B447EFCA
:1008880004F04AEF04F0010E4BEF04F0000E506E36
:10089800516ADDEF04F0040EEF19D8A456EF04F006
:1008A80058EF04F073EF04F00B0E9F19D8A45FEF14
:1008B80004F061EF04F0DDEF04F0974B982B0D0E78
:1008C80097199811D8A46BEF04F06DEF04F0DDEFE1
:1008D80004F0000E986F010E976FDDEF04F0050E1F
:1008E800EF19D8A47AEF04F07CEF04F097EF04F046
:1008F8000B0E9F19D8A483EF04F085EF04F0DDEF09
:1009080004F0EA4BEB2B1F0EEA19EB11D8A48FEF7A
:1009180004F091EF04F0DDEF04F0000EEB6F010E30
:10092800EA6FDDEF04F0060EEF19D8A49EEF04F08D
:10093800A0EF04F0BBEF04F00B0E9F19D8A4A7EFAB
:1009480004F0A9EF04F0DDEF04F0954B962B3C0E74
:1009580095199611D8A4B3EF04F0B5EF04F0DDEFC4
:1009680004F0000E966F000E956FDDEF04F0070E91
:10097800EF19D8A4C2EF04F0C4EF04F0DDEF04F0DF
:100988000B0E9F19D8A4CBEF04F0CDEF04F0DDEFE8
:1009980004F0934B942B030E93199411D8A4D7EF1A
:1009A80004F0D9EF04F0DDEF04F0000E946F000EB0
:1009B800936F93519411D8A4E4EF04F0E6EF04F098
:1009C800EAEF04F0570EAA6F03EF05F093059411B0
:1009D800D8A4F1EF04F0F3EF04F0F7EF04F0440EBD
:1009E800AA6F03EF05F0020E93199411D8A4FFEF34
:1009F80004F001EF05F003EF05F04F0EAA6F59C0A0
:100A080005F05AC006F0000E086E0A0E076E7AEC62
:100A180013F00550300F0001C16F59C005F05AC0DE
:100A280006F0000E086E0A0E076E55EC14F005501D
:100A3800300F0001C26F3A0EC36F54C005F055C0A5
:100A480006F0000E086E0A0E076E7AEC13F00550D9
:100A5800300F0001C46F54C005F055C006F0000EF9
:100A6800086E0A0E076E55EC14F00550300F0001A1
:100A7800C56F200EC66F50505110D8B446EF05F020
:100A880048EF05F04EEF05F0410EC76F4D0EC86FE9
:100A980052EF05F0500EC76F4D0EC86FC96B97C067
:100AA80005F098C006F0000E086E0A0E076E7AEC84
:100AB80013F00550300F0001A16F97C005F098C0E2
:100AC80006F0000E086E0A0E076E55EC14F005507D
:100AD800300F0001A26F3A0EA36FEAC005F0EBC019
:100AE80006F0000E086E0A0E076E7AEC13F0055039
:100AF800300F0001A46FEAC005F0EBC006F0000E4D
:100B0800086E0A0E076E55EC14F00550300F000100
:100B1800A56F3A0EA66F95C005F096C006F0000EB8
:100B2800086E0A0E076E7AEC13F00550300F0001BC
:100B3800A76F95C005F096C006F0000E086E0A0E65
:100B4800076E55EC14F00550300F0001A86F200E09
:100B5800A96FAB6B020E9F19D8A4B5EF05F0B7EFDC
:100B680005F0D0EF05F00A0E48184910D8A4BFEFD9
:100B780005F0C1EF05F0C5EF05F0000E496E000E57
:100B8800486EF0EC0DF000019E6BA06B000E846FB8
:100B9800000E836FF28EF28CEC0E076E2F0E086E2D
:100BA800800E096EEAEC13F0C10E076E086A840E17
:100BB800096EEAEC13F0660E076E2F0E086E8C0EA7
:100BC800096EEAEC13F08F0E076E2A0ED1EC15F0C1
:100BD800D50E076E2F0E086EC00E096EEAEC13F0E4
:100BE800A10E076E086AC60E096EEAEC13F0120031
:100BF800000E8AEC15F00E6E300E0E24486E496A0F
:100C0800000E4922020E00019E19D8A40EEF06F02C
:100C180010EF06F005EF08F0EE51D8B416EF06F025
:100C280018EF06F054EF06F0CB510A0DF3CF0EF093
:100C3800F4CF0FF0CC510E26000E0F22F00E0E242A
:100C4800596EFD0E0F205A6ECE510A0DF3CF0EF0DD
:100C5800F4CF0FF0CF510E26000E0F22F00E0E2407
:100C6800546EFD0E0F20556ED1510A0DF3CF0EF0C4
:100C7800F4CF0FF0D2510E26000E0F22F00E0E24E4
:100C8800526EFD0E0F20536ECBBB4DEF06F050EFAA
:100C980006F0010E51EF06F0000E506E516AEE6B31
:100CA800590E076E2F0E086E800E096EEAEC13F0CF
:100CB8000001F005D8A463EF06F065EF06F085EFB4
:100CC80006F00B0E9F19D8A46CEF06F06EEF06F035
:100CD800ECEF06F059500E6E5A500F6E594A5A2AC8
:100CE8000F5009E10B0E0E5CD8A07DEF06F07FEFE8
:100CF80006F0ECEF06F0000E5A6E000E596EECEF9F
:100D080006F0020EF019D8A48CEF06F08EEF06F06C
:100D1800A9EF06F00B0E9F19D8A495EF06F097EFF0
:100D280006F0ECEF06F0544A552A3C0E54185510BC
:100D3800D8A4A1EF06F0A3EF06F0ECEF06F0000E42
:100D4800556E000E546EECEF06F0030EF019D8A4A1
:100D5800B0EF06F0B2EF06F0CDEF06F00B0E9F19DC
:100D6800D8A4B9EF06F0BBEF06F0ECEF06F0524A54
:100D7800532A3C0E52185310D8A4C5EF06F0C7EFFB
:100D880006F0ECEF06F0000E536E000E526EECEF1C
:100D980006F0040EF019D8A4D4EF06F0D6EF06F04A
:100DA800ECEF06F00B0E9F19D8A4DDEF06F0DFEF8D
:100DB80006F0ECEF06F050505110D8B4E6EF06F00C
:100DC800E9EF06F0010EEAEF06F0000E506E516AE8
:100DD80059C005F05AC006F0000E086E0A0E076EDC
:100DE8007AEC13F00550300F0001CB6F59C005F0B5
:100DF8005AC006F0000E086E0A0E076E55EC14F085
:100E08000550300F0001CC6F54C005F055C006F0F6
:100E1800000E086E0A0E076E7AEC13F00550300FBC
:100E28000001CE6F54C005F055C006F0000E086EE4
:100E38000A0E076E55EC14F00550300F0001CF6F05
:100E480052C005F053C006F0000E086E0A0E076E79
:100E58007AEC13F00550300F0001D16F52C005F045
:100E680053C006F0000E086E0A0E076E55EC14F01B
:100E78000550300F0001D26F020E9F19D8A447EF1A
:100E880007F049EF07F0DBEF07F050505110D8B4E6
:100E980050EF07F052EF07F074EF07F059C005F074
:100EA8005AC006F0000E086E0A0E076E55EC14F0D4
:100EB80005C00EF006C00FF059C005F05AC006F084
:100EC800000E086E0A0E076E7AEC13F00538F00B68
:100ED8000E1040090C6E020EC2EC15F094EF07F0EC
:100EE80059C005F05AC006F0000E086E0A0E076ECB
:100EF80055EC14F005C00EF006C00FF059C005F00F
:100F08005AC006F0000E086E0A0E076E7AEC13F04F
:100F18000538F00B0E1060090C6E020EC2EC15F0CD
:100F280054C005F055C006F0000E086E0A0E076E94
:100F380055EC14F005C00EF006C00FF054C005F0D3
:100F480055C006F0000E086E0A0E076E7AEC13F014
:100F58000538F00B0E100C6E010EC2EC15F052C0E5
:100F680005F053C006F0000E086E0A0E076E55EC29
:100F780014F005C00EF006C00FF052C005F053C0C3
:100F880006F0000E086E0A0E076E7AEC13F00538AC
:100F9800F00B0E100C6E000EC2EC15F000019E6BEB
:100FA800A06B000E846F000E836FF28EF28CCB0E56
:100FB800076E086AC00E096EEAEC13F0630E076E3E
:100FC8002F0E086EC80E096EEAEC13F0505051103F
:100FD800D8B4F1EF07F0F3EF07F0FDEF07F0F80EE4
:100FE800076E2F0E086ECE0E096EEAEC13F005EFB1
:100FF80008F0FB0E076E2F0E086ECE0E096EEAEC97
:1010080013F01200020E00019E19D8A40EEF08F08A
:1010180010EF08F005EF0AF0EE51D8B416EF08F01B
:1010280018EF08F059EF08F0B9510A0DF3CF0EF098
:10103800F4CF0FF0BA510E26000E0F22F00E0E2438
:101048004E6EFD0E0F204F6EB4510A0DF3CF0EF009
:10105800F4CF0FF0B5510E26000E0F22F00E0E241D
:101068004C6EFD0E0F204D6EB1510A0DF3CF0EF0F0
:10107800F4CF0FF0B2510E26000E0F22F00E0E2400
:10108800916FFD0E0F20926FBB510A0DF3CF0EF03A
:10109800F4CF0FF0BC510E26000E0F22F00E0E24D6
:1010A8004A6EFD0E0F204B6EEE6B6A0E076E2F0E0A
:1010B800086E800E096EEAEC13F00001F005D8A462
:1010C80068EF08F06AEF08F085EF08F00B0E9F193B
:1010D800D8A471EF08F073EF08F0EFEF08F04E4A6C
:1010E8004F2A640E4E184F10D8A47DEF08F07FEFFA
:1010F80008F0EFEF08F0000E4F6E000E4E6EEFEFA7
:1011080008F0020EF019D8A48CEF08F08EEF08F062
:10111800A9EF08F00B0E9F19D8A495EF08F097EFE8
:1011280008F0EFEF08F04C4A4D2A0C0E4C184D1001
:10113800D8A4A1EF08F0A3EF08F0EFEF08F0000E35
:101148004D6E000E4C6EEFEF08F0030EF019D8A4A8
:10115800B0EF08F0B2EF08F0CDEF08F00B0E9F19D2
:10116800D8A4B9EF08F0BBEF08F0EFEF08F0914B07
:10117800922B1F0E91199211D8A4C5EF08F0C7EF52
:1011880008F0EFEF08F0000E926F000E916FEFEF8E
:1011980008F0040EF019D8A4D4EF08F0D6EF08F040
:1011A800EFEF08F00B0E9F19D8A4DDEF08F0DFEF82
:1011B80008F0EFEF08F04A4A4B2A080E4A184B107D
:1011C800D8A4E9EF08F0EBEF08F0EFEF08F0000E15
:1011D8004B6E000E4A6E91C005F092C006F0000EEC
:1011E800086E0A0E076E7AEC13F00550300F0001F6
:1011F800B16F91C005F092C006F0000E086E0A0E9D
:10120800076E55EC14F00550300F0001B26F2D0E2B
:10121800B36F4CC005F04DC006F0000E086E0A0E04
:10122800076E7AEC13F00550300F0001B46F4CC014
:1012380005F04DC006F0000E086E0A0E076E55EC5C
:1012480014F00550300F0001B56F2D0EB66F320E39
:10125800B76F300EB86F4EC005F04FC006F0000EE5
:10126800086E0A0E076E7AEC13F00550300F000175
:10127800B96F4EC005F04FC006F0000E086E0A0E9A
:10128800076E55EC14F00550300F0001BA6F4AC0D4
:1012980005F04BC006F0000E086E0A0E076E7AECD9
:1012A80013F00550300F0001BB6F4AC005F04BC06A
:1012B80006F0000E086E0A0E076E55EC14F0055085
:1012C800300F0001BC6FBD6B020E9F19D8A46FEFE1
:1012D80009F071EF09F0F6EF09F04EC005F04FC0C4
:1012E80006F0000E086E0A0E076E55EC14F005C0E5
:1012F8000EF006C00FF04EC005F04FC006F0000E0D
:10130800086E0A0E076E7AEC13F00538F00B0E1013
:101318000C6E060EC2EC15F04CC005F04DC006F080
:10132800000E086E0A0E076E55EC14F005C00EF09C
:1013380006C00FF04CC005F04DC006F0000E086E58
:101348000A0E076E7AEC13F00538F00B0E100C6ECF
:10135800050EC2EC15F091C005F092C006F0000E23
:10136800086E0A0E076E55EC14F005C00EF006C0A4
:101378000FF091C005F092C006F0000E086E0A0E3C
:10138800076E7AEC13F00538F00B0E100C6E040E95
:10139800C2EC15F04AC005F04BC006F0000E086E0E
:1013A8000A0E076E55EC14F005C00EF006C00FF0DB
:1013B8004AC005F04BC006F0000E086E0A0E076E14
:1013C8007AEC13F00538F00B0E100C6E030EC2EC1D
:1013D80015F000019E6BA06B000E846F000E836FEA
:1013E800F28EF28CB10E076E086AC00E096EEAEC36
:1013F80013F0650E076E2F0E086ECC0E096EEAEC20
:1014080013F01200000E056E010E10EC15F0120E0E
:101418001102F3CF13F0F4CF14F01202F350142694
:101428000B0E1324D96E010E1420DA6EDF50156EE0
:1014380015500A0DF3CF16F0F4CF17F0120E110263
:10144800F3CF18F0F4CF19F01202F35019260C0E4E
:101458001824D96E010E1920DA6EDF501A6E1A5050
:101468001626000E1722F00E16241B6EFD0E1720EE
:101478001C6E1BC01EF01CC01FF0000E1FBEFF0E0E
:10148800206E216E120E1102F3CF13F0F4CF14F078
:101498001202F35014260E0E1324D96E010E1420D6
:1014A800DA6EDF50156E15500A0DF3CF16F0F4CF33
:1014B80017F0120E1102F3CF18F0F4CF19F0120240
:1014C800F35019260F0E1824D96E010E1920DA6E62
:1014D800DF501A6E1A501626000E1722F00E162428
:1014E8001B6EFD0E17201C6E1BC022F01CC023F0C3
:1014F800000E23BEFF0E246E256E1EC005F01FC011
:1015080006F020C007F021C008F0800E096E4F0ECB
:101518000A6E120E0B6E000E0C6E20EC14F005C055
:1015280013F006C014F007C015F008C016F022C06A
:1015380005F023C006F024C007F025C008F0200EEF
:10154800096E4E0E0A6E000E0B6E000E0C6E20EC2D
:1015580014F00550132400016C6F065014206D6FB1
:10156800075015206E6F085016206F6F000E276EFB
:10157800000E266E120E1102F3CF13F0F4CF14F002
:101588001202F3501426110E1324D96E010E1420E2
:10159800DA6E4F0EDE18D8A4D4EF0AF0D6EF0AF0B0
:1015A80024EF0BF011C02AF012C02BF011C02AF062
:1015B80012C02BF013EF0BF0010E2A24136E000E4D
:1015C8002B20146E4850135C49501458D8B0EFEFD4
:1015D8000AF0F1EF0AF011EF0BF0120E2A02F3CF26
:1015E80013F0F4CF14F02B02F3501426000E13243A
:1015F800056E010E1420066E120E2A02F3CF15F0A6
:10160800F4CF16F02B02F3501626120E1524076E8F
:10161800010E1620086E2DEC15F02A4A2B2A485088
:101628002A5C49502B58D8A01CEF0BF01EEF0BF08A
:10163800E0EF0AF0FF0E2A24486EFF0E2B20496EB9
:10164800000E296E0F0E286E28C013F0010E146EBE
:10165800000E156E132A34EF0BF0D8901436153699
:10166800132E31EF0BF014C016F015C017F0000E52
:1016780017BEFF0E186E196E00016C5116141A6E03
:101688006D5117141B6E6E5118141C6E6F5119147E
:101698001D6E1A501B101C101D10D8B456EF0BF0FD
:1016A80058EF0BF062EF0BF02650800F076E310EEB
:1016B800D1EC15F0264A272A6AEF0BF02650800F46
:1016C800076E300ED1EC15F05EEF0BF02806D8A0AF
:1016D800290629BE74EF0BF072EF0BF028EF0BF020
:1016E800000E0001886F010E876F12000600F2A439
:1016F80080EF0BF082EF0BF050EF0CF0080ED624C1
:10170800D66E000ED720D76E000177517811D8A475
:1017180090EF0BF092EF0BF0AFEF0BF0010E642798
:10172800000E652366236723810E64190AE1380ECB
:10173800651907E166056711D8A4A5EF0BF0A7EFB7
:101748000BF0AFEF0BF0000E7A6F010E796F000E01
:10175800786F010E776F79057A11D8A4B6EF0BF080
:10176800B8EF0BF010EF0CF0010E6027000E6123AC
:1017780062236323410E601909E19C0E611962110D
:101788006311D8A4CAEF0BF0CCEF0BF0ECEF0BF021
:10179800000E606F000E616F000E626F000E636FC7
:1017A800000E7A6F000E796F000E646F000E656F81
:1017B800000E666F000E676F000E786F000E776F71
:1017C800000E9A6F000E996FA06B9E6B10EF0CF0D5
:1017D8007D057E11D8A4F3EF0BF0F5EF0BF00CEFBD
:1017E8000CF04850855D49508659D8B0FEEF0BF093
:1017F80000EF0CF004EF0CF0854B862B08EF0CF093
:10180800000E866F000E856F000E7E6F000E7D6FD6
:10181800000E9A6F010E996F87058811D8A417EFEB
:101828000CF019EF0CF04FEF0CF0010E6827000ECA
:1018380069236A236B23010E6C25016E000E6D214E
:10184800026E000E6E21036E000E6F21046E685149
:1018580001180FE1695102180CE16A51031809E1F6
:101868006B510418D8B43BEF0CF03DEF0CF041EF8E
:101878000CF0939081804FEF0CF093908190000EC4
:10188800886F000E876F000E686F000E696F000E7C
:101898006A6F000E6B6FF2945B921100020E0001EA
:1018A8009E19D8A45AEF0CF05CEF0CF027EF0DF05E
:1018B8000B0E9F19D8A463EF0CF065EF0CF070EFD6
:1018C8000CF05650D8B46BEF0CF06DEF0CF08EEFB7
:1018D8000CF056068EEF0CF00C0E9F19D8A477EF7B
:1018E8000CF079EF0CF08EEF0CF0FF0E48240A6E26
:1018F800FF0E49200B6E56500C6E0D6A0A500C5C98
:101908000B500D58D8B08BEF0CF08DEF0CF08EEF1C
:101918000CF0562A800E076E230ED1EC15F0E70E58
:10192800076E2F0E086E810E096EEAEC13F0000E9A
:101938000F6E050E0E6E000E116E000E106E0E501C
:10194800800F076E5650120D000EF3240A6E010E1A
:10195800F4200B6E10500A24D96E11500B20DA6E49
:10196800DF50D1EC15F00E4A0F2A104A112A11BE89
:10197800C7EF0CF0115009E1080E105CD8A0C7EFB2
:101988000CF0C9EF0CF0A3EF0CF0F10E076E2F0E60
:10199800086E0E50800F096EEAEC13F0000E0F6E01
:1019A800000E0E6EC00E076E5650300FD1EC15F0BB
:1019B8000E4A0F2AE20E076E2F0E086E0E50C00F49
:1019C800096EEAEC13F0000E0F6E050E0E6E11BED6
:1019D800F7EF0CF0115009E1120E105CD8A0F7EFE8
:1019E8000CF0F9EF0CF0FBEF0CF015EF0DF00E50CA
:1019F800C00F076E5650120D000EF3240A6E010E2A
:101A0800F4200B6E10500A24D96E11500B20DA6E98
:101A1800DF50D1EC15F00E4A0F2A104A112AEBEFCD
:101A28000CF0020E00019F19D8A41DEF0DF01FEF56
:101A38000DF027EF0DF09E6BA06B000E846F000E6B
:101A4800836FF28EF28C1200000E286E000E276E45
:101A5800DAEF0DF0000E2A6E000E296EBDEF0DF0C4
:101A6800120E2902F3CF0FF0F4CF10F02A02F35030
:101A780010260F500D24056E10500E20066E120E03
:101A88002902F3CF11F0F4CF12F02A02F3501226F4
:101A980011500D24136E12500E20146E120E1324C2
:101AA800076E000E1420086EB4EC13F006BE65EF46
:101AB8000DF0065008E10504D8A065EF0DF067EFBA
:101AC8000DF0BBEF0DF0150E056E066A120E290219
:101AD800F3CF0FF0F4CF10F02A02F35010260F5076
:101AE8000D24076E10500E20086EABEC14F0120E89
:101AF8002902F3CF0FF0F4CF10F02A02F35010268A
:101B08000F500D24056E10500E20066E120E29027D
:101B1800F3CF11F0F4CF12F02A02F350122611502D
:101B28000D24136E12500E20146E120E1324076E1D
:101B3800000E1420086EABEC14F0120E2902F3CF3D
:101B48000FF0F4CF10F02A02F35010260F500D2496
:101B5800116E10500E20126E120E1124056E000E1A
:101B68001220066E150E076E086AABEC14F0294AAF
:101B78002A2A27500B5C0F6E28500C58106EFF0E47
:101B88000F24116EFF0E1020126E1150295C2A507E
:101B9800800A136E1250800A1358D8A0D6EF0DF0A1
:101BA800D8EF0DF034EF0DF0274A282AFF0E0B244A
:101BB8000F6EFF0E0C20106E0F50275C2850800A05
:101BC800116E1050800A1158D8A0EDEF0DF0EFEF0C
:101BD8000DF02EEF0DF01200495007E10A0E485C97
:101BE800D8B0F9EF0DF0FBEF0DF0A6EF0EF0000EF8
:101BF800136E000E126E1250C10FD96EDA6ADF50E2
:101C08000A6E0001ED51F0EC14F00001ED2B124AC0
:101C1800132A13BE19EF0EF0135009E1080E125CD7
:101C2800D8A019EF0EF01BEF0EF0FFEF0DF0000E2D
:101C3800156E000E146E1450A10FD96EDA6ADF50BB
:101C48000A6EED51F0EC14F00001ED2B144A152A40
:101C580015BE38EF0EF0155009E10A0E145CD8A035
:101C680038EF0EF03AEF0EF01FEF0EF0484A492A0F
:101C78004850300F0A6E000EF0EC14F0000E176E8C
:101C8800000E166E120E4802F3CF0EF0F4CF0FF0CE
:101C98004902F3500F26000E0E24106E010E0F207D
:101CA800116E16501024D96E17501120DA6E0001EB
:101CB800EC518AEC15F0DF6E120E4802F3CF0EF0ED
:101CC800F4CF0FF04902F3500F26000E0E24106EC9
:101CD800010E0F20116E16501024D96E17501120C6
:101CE800DA6EDF500A6E0001EC51F0EC14F00001DE
:101CF800EC2B164A172A17BE8BEF0EF0175009E186
:101D0800120E165CD8A08BEF0EF08DEF0EF046EF9A
:101D18000EF0570EAA19D8A494EF0EF096EF0EF015
:101D2800A6EF0EF04AC005F04BC006F0000E086E94
:101D38000A0E076E55EC14F00550300F0A6E0A0EA5
:101D4800F0EC14F0120000019E05D8A4AEEF0EF0DE
:101D5800B0EF0EF031EF0FF0000E056E010E10EC33
:101D680015F0A80E076E2F0E086E820E096EEAECAB
:101D780013F0990E076E2F0E086EC20E096EEAEC6C
:101D880013F05804D8A4CBEF0EF0CDEF0EF0DFEF30
:101D98000EF0F50E076E2F0E086E800E096EEAEC37
:101DA80013F0670E076E2F0E086EC00E096EEAEC70
:101DB80013F0F8EF0EF0020E5818D8A4E6EF0EF064
:101DC800E8EF0EF0F8EF0EF0F50E076E2F0E086E26
:101DD800C00E096EEAEC13F0670E076E2F0E086E40
:101DE800800E096EEAEC13F00B0E00019F19D8A4BF
:101DF80000EF0FF002EF0FF015EF0FF09E05D8A4DB
:101E080008EF0FF00AEF0FF031EF0FF0010E5864F2
:101E180010EF0FF012EF0FF031EF0FF0580631EF1F
:101E28000FF00C0E9F19D8A41CEF0FF01EEF0FF047
:101E380031EF0FF09E05D8A424EF0FF026EF0FF036
:101E480031EF0FF0020E58602CEF0FF02EEF0FF06D
:101E580031EF0FF0582A31EF0FF05804D8A437EFBC
:101E68000FF039EF0FF044EF0FF0020E9E19D8A4CF
:101E780040EF0FF042EF0FF044EF0FF052EC0CF090
:101E8800020E5818D8A44BEF0FF04DEF0FF059EF92
:101E98000FF0020E00019E19D8A455EF0FF057EF6E
:101EA8000FF059EF0FF094EC03F0120000019E05BB
:101EB800D8A461EF0FF063EF0FF0DFEF0FF05804D5
:101EC800D8A469EF0FF06BEF0FF07DEF0FF0F50E70
:101ED800076E2F0E086E800E096EEAEC13F0670E7F
:101EE800076E2F0E086EC00E096EEAEC13F096EF1F
:101EF8000FF0020E5818D8A484EF0FF086EF0FF0F9
:101F080096EF0FF0670E076E2F0E086E800E096EA3
:101F1800EAEC13F0F50E076E2F0E086EC00E096E70
:101F2800EAEC13F07B0E076E2F0E086E820E096E18
:101F3800EAEC13F08A0E076E2F0E086EC20E096EB9
:101F4800EAEC13F00B0E00019F19D8A4AEEF0FF0C6
:101F5800B0EF0FF0C3EF0FF09E05D8A4B6EF0FF067
:101F6800B8EF0FF0DFEF0FF0010E5864BEEF0FF07F
:101F7800C0EF0FF0DFEF0FF05806DFEF0FF00C0E99
:101F88009F19D8A4CAEF0FF0CCEF0FF0DFEF0FF0D6
:101F98009E05D8A4D2EF0FF0D4EF0FF0DFEF0FF0CB
:101FA800020E5860DAEF0FF0DCEF0FF0DFEF0FF002
:101FB800582ADFEF0FF05804D8A4E5EF0FF0E7EF49
:101FC8000FF0F4EF0FF0020E9E19D8A4EEEF0FF009
:101FD800F0EF0FF008EF10F0FCEC05F008EF10F050
:101FE800020E5818D8A4FBEF0FF0FDEF0FF008EF22
:101FF80010F0020E9E19D8A404EF10F006EF10F0AE
:1020080008EF10F006EC08F0120086EC12F0000E53
:102018003D6E000E3C6E9EEF10F0120E3C02F3CFA8
:102028002EF0F4CF2FF03D02F3502F26060E2E246B
:10203800D96E010E2F20DA6E00019C51DE18D8A44B
:1020480028EF10F02AEF10F09CEF10F0000E3F6E12
:10205800000E3E6E120E3C02F3CF2EF0F4CF2FF09E
:102068003D02F3502F26000E2E24306E010E2F2035
:10207800316E3E503024D96E3F503120DA6E3E50DA
:10208800320FE16EE26ADFCFE7FF3E4A3F2A3FBEEA
:1020980057EF10F03F5009E1080E3E5CD8A057EF0B
:1020A80010F059EF10F02EEF10F03A0E376E3A6A32
:1020B800000174AD62EF10F064EF10F075EF10F0EE
:1020C80074AB69EF10F06BEF10F071EF10F0500E79
:1020D800D16F4D0ED26F75EF10F0410ED16F4D0ECE
:1020E800D26FD36B000E056E010E10EC15F0CB0EFF
:1020F800056E066A320E076E086AB4EC13F00550D6
:102108000610D8A48AEF10F08CEF10F09CEF10F0B6
:10211800000E056E010E10EC15F03CC011F03DC02C
:1021280012F006EC0AF0000E00017E6F010E7D6FC2
:102138003C4A3D2A48503C5C49503D58D8A0A7EF3E
:1021480010F0A9EF10F011EF10F02C682D681200B4
:10215800819A818C818E81B2B4EF10F0B6EF10F0C5
:10216800B9EF10F0010E2FEF11F081B4BEEF10F0AF
:10217800C0EF10F0C3EF10F0040E2FEF11F081B68E
:10218800C8EF10F0CAEF10F0CDEF10F0070E2FEFE8
:1021980011F081B8D2EF10F0D4EF10F0D7EF10F0B3
:1021A8000A0E2FEF11F0818A819C818E81B2DFEFB8
:1021B80010F0E1EF10F0E4EF10F0020E2FEF11F045
:1021C80081B4E9EF10F0EBEF10F0EEEF10F0050E30
:1021D8002FEF11F081B6F3EF10F0F5EF10F0F8EFF4
:1021E80010F0080E2FEF11F081B8FDEF10F0FFEF9F
:1021F80010F002EF11F00B0E2FEF11F0818A818C95
:10220800819E819E81B20BEF11F00DEF11F010EF5E
:1022180011F0030E2FEF11F081B415EF11F017EF45
:1022280011F01AEF11F0060E2FEF11F081B61FEF23
:1022380011F021EF11F024EF11F0090E2FEF11F03A
:1022480081B829EF11F02BEF11F02EEF11F00C0EE1
:102258002FEF11F0FF0E1200000E476E000E466EB3
:102268008FEF11F0120E4602F3CF43F0F4CF44F093
:102278004702F3504426110E4324D96E010E442020
:10228800DA6E570EDE18D8A44CEF11F04EEF11F0AD
:1022980052EF11F0CEEC14F08DEF11F0120E460251
:1022A800F3CF43F0F4CF44F04702F3504426110E25
:1022B8004324D96E010E4420DA6E440EDE18D8A4E9
:1022C80068EF11F06AEF11F06EEF11F027EC16F0DD
:1022D8008DEF11F0120E4602F3CF43F0F4CF44F025
:1022E8004702F3504426110E4324D96E010E4420B0
:1022F800DA6E4F0EDE18D8A484EF11F086EF11F0D5
:102308008DEF11F0000E056E010E10EC15F0B2EC19
:1023180015F0464A472A4850465C49504758D8A0C5
:1023280098EF11F09AEF11F036EF11F0120000015A
:10233800B1510A0DF3CF05F0F4CF06F0B2510526DE
:10234800000E0622F00E05244A6EFD0E06204B6E86
:10235800B4510A0DF3CF05F0F4CF06F0B5510526B8
:10236800000E0622F00E05244C6EFD0E06204D6E62
:10237800B9510A0DF3CF05F0F4CF06F0B851640D4A
:10238800F3CF07F0F4CF08F0B751096E0A6AE80EE8
:102398000902F3CF0BF0F4CF0CF00A02F3500C262D
:1023A800030E0902F3500C2607500B240D6E08503B
:1023B8000C200E6E05500D240F6E06500E20106E68
:1023C800BA510F26000E1022B00E0F244E6E2F0E9B
:1023D80010204F6E1200956A9450F80B946E8290FC
:1023E800C30E076ECD0EE82EFED7072EFCD70000D1
:1023F800000E056E330E10EC15F01B0E076E9E0EC8
:10240800E82EFED7072EFCD700D0000E056E330E3F
:1024180010EC15F0A60EE82EFED700D0000E056EC3
:10242800330E10EC15F000D000D00000000E056E41
:10243800020E10EC15F0A60EE82EFED700D0000E06
:10244800056E380E10EC15F0A60EE82EFED700D05B
:10245800000E056E010E10EC15F0040E076E3E0E10
:10246800E82EFED7072EFCD7000E056E0C0E10ECDA
:1024780015F0A60EE82EFED700D01200220EF66E3A
:102488002C0EF76E000EF86E00EEE8F010EE0BF072
:102498000900F5CFEEFFE550E150FAE15A0EF66E6D
:1024A8002C0EF76E000EF86E0900F5CF58F00900F3
:1024B800F5CF59F00900F5CF5AF003EE00F0B40E4D
:1024C800EE6AE806FDE102EE00F0B40EEE6AE806F8
:1024D800FDE101EE00F0B40EEE6AE806FDE100EE63
:1024E80060F0740EEE6AE806FDE100EE48F0100EAA
:1024F800EE6AE806FDE15B905B92000EF86E000163
:1025080009EF00F0020E75EC15F00001746F010E72
:1025180075EC15F00001756F000E75EC15F00001F3
:10252800766F74AD9AEF12F09CEF12F0A7EF12F0ED
:1025380074390F0B010B300FCB6F74510F0B300F29
:10254800CC6FB0EF12F074390F0B030B300FCB6F59
:1025580074510F0B300FCC6F3A0ECD6F75390F0BCE
:102568000F0B300FCE6F75510F0B300FCF6F3A0E28
:10257800D06F76390F0B0F0B300FD16F76510F0BD1
:10258800300FD26FD36B1200056E0504D8A4CFEFBD
:1025980012F0D1EF12F0F6EF12F0ACEC10F0576E2B
:1025A8005728D8B4DAEF12F0DCEF12F0E9EF12F0A6
:1025B8000001F251D8B4E3EF12F0E5EF12F0E9EFC1
:1025C80012F0F26B575003EF13F05728D8A4EFEF2F
:1025D80012F0F1EF12F002EF13F0010E0001F26FAA
:1025E80002EF13F00550D8A4FCEF12F0FEEF12F042
:1025F80002EF13F0ACEC10F003EF13F0FF0E120033
:10260800DC0E076E2F0E086EC00E096EEAEC13F092
:10261800CB0E076E086AC50E096EEAEC13F0CD0EF4
:10262800076E200ED1EC15F0000174AD1EEF13F00B
:1026380020EF13F03FEF13F074AB25EF13F027EF03
:1026480013F034EF13F0FB0E076E2F0E086ECE0E4C
:10265800096EEAEC13F0500E00019C6F3FEF13F087
:10266800F80E076E2F0E086ECE0E096EEAEC13F008
:10267800410E00019C6F1200060E75EC15F000016A
:10268800706F050E75EC15F00001716F040E75EC96
:1026980015F00001726F030E75EC15F00001736FF1
:1026A80072390F0B0F0B300FB16F72510F0B300FC8
:1026B800B26F2D0EB36F71390F0B0F0B300FB46F54
:1026C80071510F0B300FB56F2D0EB66F320EB76FFD
:1026D800300EB86F70390F0B0F0B300FB96F705188
:1026E8000F0B300FBA6FBB6BBD6B1200000E0A6E7A
:1026F800000E096E07500810D8B485EF13F087EF65
:1027080013F0AFEF13F0010E0B6E8FEF13F0D890AC
:10271800073608360B2A08AE94EF13F096EF13F03D
:102728008BEF13F0D89009360A360750055C08502D
:102738000658D8A0A2EF13F0A4EF13F0A9EF13F0F6
:102748000750055E0850065A0980D89008320732AB
:102758000B2E96EF13F009C005F00AC006F0120020
:10276800BAEF13F0054A062A074A082A07C0D9FF14
:1027780008C0DAFF05C0E1FF06C0E2FFDE50E61838
:10278800D8A4C9EF13F0CBEF13F0D7EF13F005C0BF
:10279800D9FF06C0DAFFDF50D8A4D5EF13F0D7EF82
:1027A80013F0B6EF13F005C0D9FF06C0DAFFDF500B
:1027B800096E07C0D9FF08C0DAFFDF500A6E0A5059
:1027C800095C056E066AD8A006061200000E056EA2
:1027D800095010EC15F007EF14F0010E056E07C054
:1027E800F6FF08C0F7FFF86A050EF76403D0080083
:1027F800F55005D0F6CFE1FFF7CFE2FFE75010EC38
:1028080015F0074A082A07C0F6FF08C0F7FFF86A5C
:10281800050EF76403D00800F55005D0F6CFE1FFA8
:10282800F7CFE2FFE7500009D8A41DEF14F01FEF1F
:1028380014F0F1EF13F01200000E0D6E000E0E6E84
:10284800000E0F6E000E106E05A02DEF14F02FEF86
:1028580014F037EF14F009500D260A500E220B50D1
:102868000F220C501022D89009360A360B360C3637
:10287800D890083207320632053205500610071084
:102888000810D8A44AEF14F04CEF14F028EF14F015
:102898000DC005F00EC006F00FC007F010C008F01C
:1028A800120007500810D8B45CEF14F05EEF14F073
:1028B80082EF14F0010E096E66EF14F0D890073617
:1028C8000836092A08AE6BEF14F06DEF14F062EFCA
:1028D80014F00750055C08500658D8A076EF14F09D
:1028E80078EF14F07CEF14F00750055E0850065A94
:1028F800D89008320732092E6DEF14F005C005F0A4
:1029080006C006F01200000E75EC15F00E6E0E50A3
:1029180080090C6E000EC2EC15F0020E75EC15F075
:102928000E6E0E5040090C6E020EC2EC15F0930E9E
:102938000C6E070EC2EC15F0000E75EC15F00E6E5D
:102948000E507F0B0C6E000EC2EC15F01200000E3C
:102958000A6E000E096E09500724D96E0A50082025
:10296800DA6E09500524E16E0A500620E26EDFCFC8
:10297800E7FF094A0A2A0ABECBEF14F00A5009E118
:10298800120E095CD8A0CBEF14F0CDEF14F0AFEF26
:1029980014F0120040EC13F048EC15F011C041F0AF
:1029A80012C042F00A0E8AEC15F0406ED00E402498
:1029B80000017B6F7C6BFF0E7C237B51411807E184
:1029C8007C514218D8A4EBEF14F0EDEF14F0EFEFC0
:1029D80014F009EC10F012000D6E1BEC16F0A00EAE
:1029E80005EC16F00D5005EC16F00A5005EC16F043
:1029F80017EC16F00B0E0C6EB80E0B6E0B06D8A06B
:102A08000C060B2806E10C28D8A40DEF15F00FEFE3
:102A180015F002EF15F01200066E05B016EF15F06E
:102A280019EF15F082821AEF15F0829206C083FF23
:102A380082848294958E828082928284829483BEDC
:102A480028EF15F02AEF15F021EF15F08290959EEA
:102A5800120005C009F006C00AF007C0D9FF08C077
:102A6800DAFF074A082A09C0E1FF0AC0E2FF094A5B
:102A78000A2ADFCFE7FFE750D8A445EF15F047EF64
:102A880015F031EF15F012009BEC11F00001B15177
:102A98000A0DF3CF13F0F4CF14F0B2511326000E41
:102AA8001422F00E1324156EFD0E1420166E15C098
:102AB80011F016C012F01200C00E076E2F0E086E2D
:102AC800800E096EEAEC13F0B10E076E086A850EE7
:102AD800096EEAEC13F08F0E076E200ED1EC15F09C
:102AE8001200066E1BEC16F0D00E05EC16F0065020
:102AF80005EC16F01FEC16F0D10E05EC16F00BECF9
:102B080016F0076E17EC16F007501200066E1BEC55
:102B180016F0A00E05EC16F0065005EC16F01FECAA
:102B280016F0A10E05EC16F00BEC16F0076E17EC7C
:102B380016F007501200F28CF28E816A936A0F0E1B
:102B4800C16EDDEC15F0E8EC15F087EC14F0F3EC51
:102B580015F0EFEC11F096908490120009EC10F04B
:102B68002C502D10D8B4BBEF15F0BDEF15F0C0EF09
:102B780015F0010EC1EF15F0000E12000D6E1BECE2
:102B880016F0D00E05EC16F00D5005EC16F00C50B2
:102B980005EC16F017EC16F01200086E000E056E24
:102BA800075010EC15F0010E056E085010EC15F0EA
:102BB8001200D58CD59AD58ED586000ED76E060E06
:102BC800D66EF294F28A120094869488280EC66E05
:102BD800310EC86EC79CC78E9E96A19612000F0E26
:102BE800C16E1E0E936EF19E8150E009816E120037
:102BF8009EA601EF16F003EF16F0FCEF15F09E9677
:102C08001200056E05C0C9FFFCEC15F0120023EC9C
:102C180016F02AEC16F0C950120002000500010156
:052C28000101010101A2
:102C2E00C584FCEC15F01200C580FCEC15F012000A
:102C3E00C582FCEC15F01200C586FCEC15F01200F6
:0F2C4E0009EC10F01200C58AC5881200010100C0
:102F580000205345542054494D452020202020204E
:102F6800200020534554204441544520202020204F
:102F78002020005345542054494D4520202020202E
:102F8800200053455420444154452020202020202F
:102F980000534554204556454E54202020202000FB
:102FA80056494557204556454E5420202020005369
:102FB80045545F54494D452F4441544520005345DD
:102FC800542F56494557204556454E5400445552AE
:102FD800202D200054494D45200020442D2000205C
:102FE800542D200054494D450020202A002D3E0034
:072FF800414D00504D0000A7
:020000040020DA
:08000000FFFFFFFFFFFFFFFF00
:020000040030CA
:0E000000FF071F1FFF8285FF0FC00FE00F409C
:00000001FF
